{
  "contractName": "AssetManager",
  "abi": [
    {
      "anonymous": false,
      "inputs": [
        {
          "indexed": true,
          "internalType": "address",
          "name": "previousOwner",
          "type": "address"
        },
        {
          "indexed": true,
          "internalType": "address",
          "name": "newOwner",
          "type": "address"
        }
      ],
      "name": "OwnershipTransferred",
      "type": "event"
    },
    {
      "anonymous": false,
      "inputs": [
        {
          "indexed": false,
          "internalType": "string",
          "name": "state",
          "type": "string"
        },
        {
          "indexed": false,
          "internalType": "uint256",
          "name": "stateCode",
          "type": "uint256"
        },
        {
          "indexed": false,
          "internalType": "uint256",
          "name": "id",
          "type": "uint256"
        },
        {
          "indexed": false,
          "internalType": "string",
          "name": "name",
          "type": "string"
        },
        {
          "indexed": false,
          "internalType": "address",
          "name": "npaAddress",
          "type": "address"
        }
      ],
      "name": "eventState",
      "type": "event"
    },
    {
      "anonymous": false,
      "inputs": [
        {
          "indexed": false,
          "internalType": "uint256",
          "name": "id",
          "type": "uint256"
        },
        {
          "indexed": false,
          "internalType": "address",
          "name": "npa",
          "type": "address"
        }
      ],
      "name": "npaAddress",
      "type": "event"
    },
    {
      "inputs": [
        {
          "internalType": "uint256",
          "name": "",
          "type": "uint256"
        }
      ],
      "name": "NPA_List",
      "outputs": [
        {
          "internalType": "contract AssetInterface",
          "name": "npa",
          "type": "address"
        },
        {
          "internalType": "address",
          "name": "npaContract",
          "type": "address"
        }
      ],
      "stateMutability": "view",
      "type": "function",
      "constant": true
    },
    {
      "inputs": [
        {
          "internalType": "uint256",
          "name": "",
          "type": "uint256"
        }
      ],
      "name": "auctionList",
      "outputs": [
        {
          "internalType": "uint256",
          "name": "",
          "type": "uint256"
        }
      ],
      "stateMutability": "view",
      "type": "function",
      "constant": true
    },
    {
      "inputs": [
        {
          "internalType": "uint256",
          "name": "",
          "type": "uint256"
        }
      ],
      "name": "bankList",
      "outputs": [
        {
          "internalType": "string",
          "name": "",
          "type": "string"
        }
      ],
      "stateMutability": "view",
      "type": "function",
      "constant": true
    },
    {
      "inputs": [],
      "name": "owner",
      "outputs": [
        {
          "internalType": "address",
          "name": "",
          "type": "address"
        }
      ],
      "stateMutability": "view",
      "type": "function",
      "constant": true
    },
    {
      "inputs": [],
      "name": "renounceOwnership",
      "outputs": [],
      "stateMutability": "nonpayable",
      "type": "function"
    },
    {
      "inputs": [
        {
          "internalType": "address",
          "name": "newOwner",
          "type": "address"
        }
      ],
      "name": "transferOwnership",
      "outputs": [],
      "stateMutability": "nonpayable",
      "type": "function"
    },
    {
      "inputs": [
        {
          "internalType": "string",
          "name": "_bankName",
          "type": "string"
        }
      ],
      "name": "addBankIfNotExist",
      "outputs": [],
      "stateMutability": "nonpayable",
      "type": "function"
    },
    {
      "inputs": [
        {
          "internalType": "uint256",
          "name": "_id",
          "type": "uint256"
        }
      ],
      "name": "getNPA",
      "outputs": [
        {
          "internalType": "uint256",
          "name": "id",
          "type": "uint256"
        },
        {
          "internalType": "address",
          "name": "add",
          "type": "address"
        }
      ],
      "stateMutability": "view",
      "type": "function",
      "constant": true
    },
    {
      "inputs": [
        {
          "internalType": "uint256",
          "name": "_auctionID",
          "type": "uint256"
        }
      ],
      "name": "addAuctionIdIfNotExist",
      "outputs": [
        {
          "internalType": "uint256",
          "name": "",
          "type": "uint256"
        }
      ],
      "stateMutability": "nonpayable",
      "type": "function"
    },
    {
      "inputs": [
        {
          "internalType": "string",
          "name": "_eventName",
          "type": "string"
        }
      ],
      "name": "addEventTypeIfNotExist",
      "outputs": [
        {
          "internalType": "uint256",
          "name": "",
          "type": "uint256"
        }
      ],
      "stateMutability": "nonpayable",
      "type": "function"
    },
    {
      "inputs": [
        {
          "internalType": "string",
          "name": "_bankName",
          "type": "string"
        },
        {
          "internalType": "string",
          "name": "_assetOnAuction",
          "type": "string"
        },
        {
          "internalType": "uint256",
          "name": "_auctionID",
          "type": "uint256"
        },
        {
          "internalType": "string",
          "name": "_eventType",
          "type": "string"
        },
        {
          "internalType": "string",
          "name": "_city",
          "type": "string"
        },
        {
          "internalType": "uint256",
          "name": "_reservePrice",
          "type": "uint256"
        },
        {
          "internalType": "uint256",
          "name": "_EMD",
          "type": "uint256"
        },
        {
          "internalType": "uint256",
          "name": "_bidMultiplier",
          "type": "uint256"
        },
        {
          "internalType": "uint256",
          "name": "_timestamp",
          "type": "uint256"
        }
      ],
      "name": "addNPA",
      "outputs": [],
      "stateMutability": "nonpayable",
      "type": "function"
    }
  ],
  "bytecode": "0x6080604052606460025560c860045561012c600655610190600855600061002a6100cd60201b60201c565b9050806000806101000a81548173ffffffffffffffffffffffffffffffffffffffff021916908373ffffffffffffffffffffffffffffffffffffffff1602179055508073ffffffffffffffffffffffffffffffffffffffff16600073ffffffffffffffffffffffffffffffffffffffff167f8be0079c531659141344cd1fd0a4f28419497f9722a3daafe3b4186f6b6457e060405160405180910390a3506100d5565b600033905090565b6125d6806100e46000396000f3fe60806040523480156200001157600080fd5b5060043610620000b85760003560e01c80638da5cb5b116200007b5780638da5cb5b14620002cc578063b810c5971462000318578063cba49c211462000390578063d32ccd17146200043d578063d8bcb64a14620006ff578063f2fde38b14620007c057620000b8565b80632375f80b14620000bd578063669c00831462000192578063715018a614620001d75780637803200314620001e35780638030c51f1462000228575b600080fd5b6200017c60048036036020811015620000d557600080fd5b8101908080359060200190640100000000811115620000f357600080fd5b8201836020820111156200010657600080fd5b803590602001918460018302840111640100000000831117156200012957600080fd5b91908080601f016020809104026020016040519081016040528093929190818152602001838380828437600081840152601f19601f82011690508083019250505050505050919291929050505062000807565b6040518082815260200191505060405180910390f35b620001c160048036036020811015620001aa57600080fd5b810190808035906020019092919050505062000b96565b6040518082815260200191505060405180910390f35b620001e162000bae565b005b6200021260048036036020811015620001fb57600080fd5b810190808035906020019092919050505062000d39565b6040518082815260200191505060405180910390f35b62000257600480360360208110156200024057600080fd5b810190808035906020019092919050505062000f8f565b604051808373ffffffffffffffffffffffffffffffffffffffff1673ffffffffffffffffffffffffffffffffffffffff1681526020018273ffffffffffffffffffffffffffffffffffffffff1673ffffffffffffffffffffffffffffffffffffffff1681526020019250505060405180910390f35b620002d662000ff3565b604051808273ffffffffffffffffffffffffffffffffffffffff1673ffffffffffffffffffffffffffffffffffffffff16815260200191505060405180910390f35b62000347600480360360208110156200033057600080fd5b81019080803590602001909291905050506200101c565b604051808381526020018273ffffffffffffffffffffffffffffffffffffffff1673ffffffffffffffffffffffffffffffffffffffff1681526020019250505060405180910390f35b620003bf60048036036020811015620003a857600080fd5b810190808035906020019092919050505062001066565b6040518080602001828103825283818151815260200191508051906020019080838360005b8381101562000401578082015181840152602081019050620003e4565b50505050905090810190601f1680156200042f5780820380516001836020036101000a031916815260200191505b509250505060405180910390f35b620006fd60048036036101208110156200045657600080fd5b81019080803590602001906401000000008111156200047457600080fd5b8201836020820111156200048757600080fd5b80359060200191846001830284011164010000000083111715620004aa57600080fd5b91908080601f016020809104026020016040519081016040528093929190818152602001838380828437600081840152601f19601f820116905080830192505050505050509192919290803590602001906401000000008111156200050e57600080fd5b8201836020820111156200052157600080fd5b803590602001918460018302840111640100000000831117156200054457600080fd5b91908080601f016020809104026020016040519081016040528093929190818152602001838380828437600081840152601f19601f8201169050808301925050505050505091929192908035906020019092919080359060200190640100000000811115620005b257600080fd5b820183602082011115620005c557600080fd5b80359060200191846001830284011164010000000083111715620005e857600080fd5b91908080601f016020809104026020016040519081016040528093929190818152602001838380828437600081840152601f19601f820116905080830192505050505050509192919290803590602001906401000000008111156200064c57600080fd5b8201836020820111156200065f57600080fd5b803590602001918460018302840111640100000000831117156200068257600080fd5b91908080601f016020809104026020016040519081016040528093929190818152602001838380828437600081840152601f19601f820116905080830192505050505050509192919290803590602001909291908035906020019092919080359060200190929190803590602001909291905050506200111a565b005b620007be600480360360208110156200071757600080fd5b81019080803590602001906401000000008111156200073557600080fd5b8201836020820111156200074857600080fd5b803590602001918460018302840111640100000000831117156200076b57600080fd5b91908080601f016020809104026020016040519081016040528093929190818152602001838380828437600081840152601f19601f820116905080830192505050505050509192919290505050620016ba565b005b6200080560048036036020811015620007d857600080fd5b81019080803573ffffffffffffffffffffffffffffffffffffffff16906020019092919050505062001a36565b005b60006200081362001b10565b73ffffffffffffffffffffffffffffffffffffffff166000809054906101000a900473ffffffffffffffffffffffffffffffffffffffff1673ffffffffffffffffffffffffffffffffffffffff1614620008d5576040517f08c379a00000000000000000000000000000000000000000000000000000000081526004018080602001828103825260208152602001807f4f776e61626c653a2063616c6c6572206973206e6f7420746865206f776e657281525060200191505060405180910390fd5b60008060009050600061012c90505b60065481101562000a1557600560008281526020019081526020016000206040516020018082805460018160011615610100020316600290048015620009645780601f106200094157610100808354040283529182019162000964565b820191906000526020600020905b8154815290600101906020018083116200094f575b505091505060405160208183030381529060405280519060200120856040516020018082805190602001908083835b60208310620009b8578051825260208201915060208101905060208303925062000993565b6001836020036101000a03801982511681845116808217855250505050505090500191505060405160208183030381529060405280519060200120141562000a07578092506001915062000a15565b8080600101915050620008e4565b508062000b8c5783600560006006548152602001908152602001600020908051906020019062000a4792919062001c5e565b5060065491507fe76c822f6fbd9c15397238632a6cd69cd897fb6f8bb595172564a8efc187261d6000600181111562000a7c57fe5b6006548660006040518080602001868152602001858152602001806020018473ffffffffffffffffffffffffffffffffffffffff1673ffffffffffffffffffffffffffffffffffffffff1681526020018381038352600c8152602001807f456e746974792041646465640000000000000000000000000000000000000000815250602001838103825285818151815260200191508051906020019080838360005b8381101562000b3a57808201518184015260208101905062000b1d565b50505050905090810190601f16801562000b685780820380516001836020036101000a031916815260200191505b50965050505050505060405180910390a16006600081548092919060010191905055505b8192505050919050565b60036020528060005260406000206000915090505481565b62000bb862001b10565b73ffffffffffffffffffffffffffffffffffffffff166000809054906101000a900473ffffffffffffffffffffffffffffffffffffffff1673ffffffffffffffffffffffffffffffffffffffff161462000c7a576040517f08c379a00000000000000000000000000000000000000000000000000000000081526004018080602001828103825260208152602001807f4f776e61626c653a2063616c6c6572206973206e6f7420746865206f776e657281525060200191505060405180910390fd5b600073ffffffffffffffffffffffffffffffffffffffff166000809054906101000a900473ffffffffffffffffffffffffffffffffffffffff1673ffffffffffffffffffffffffffffffffffffffff167f8be0079c531659141344cd1fd0a4f28419497f9722a3daafe3b4186f6b6457e060405160405180910390a360008060006101000a81548173ffffffffffffffffffffffffffffffffffffffff021916908373ffffffffffffffffffffffffffffffffffffffff160217905550565b600062000d4562001b10565b73ffffffffffffffffffffffffffffffffffffffff166000809054906101000a900473ffffffffffffffffffffffffffffffffffffffff1673ffffffffffffffffffffffffffffffffffffffff161462000e07576040517f08c379a00000000000000000000000000000000000000000000000000000000081526004018080602001828103825260208152602001807f4f776e61626c653a2063616c6c6572206973206e6f7420746865206f776e657281525060200191505060405180910390fd5b60008060009050600060c890505b60045481101562000e5757846003600083815260200190815260200160002054141562000e49578092506001915062000e57565b808060010191505062000e15565b508062000f8557600454915083600360006004548152602001908152602001600020819055507fe76c822f6fbd9c15397238632a6cd69cd897fb6f8bb595172564a8efc187261d6000600181111562000eac57fe5b60045460006040518080602001858152602001848152602001806020018473ffffffffffffffffffffffffffffffffffffffff1673ffffffffffffffffffffffffffffffffffffffff1681526020018381038352600c8152602001807f456e746974792041646465640000000000000000000000000000000000000000815250602001838103825260078152602001807f53756363657373000000000000000000000000000000000000000000000000008152506020019550505050505060405180910390a16004600081548092919060010191905055505b8192505050919050565b60076020528060005260406000206000915090508060000160009054906101000a900473ffffffffffffffffffffffffffffffffffffffff16908060010160009054906101000a900473ffffffffffffffffffffffffffffffffffffffff16905082565b60008060009054906101000a900473ffffffffffffffffffffffffffffffffffffffff16905090565b60008060006007600085815260200190815260200160002060010160009054906101000a900473ffffffffffffffffffffffffffffffffffffffff16905083819250925050915091565b60016020528060005260406000206000915090508054600181600116156101000203166002900480601f016020809104026020016040519081016040528092919081815260200182805460018160011615610100020316600290048015620011125780601f10620010e65761010080835404028352916020019162001112565b820191906000526020600020905b815481529060010190602001808311620010f457829003601f168201915b505050505081565b6200112462001b10565b73ffffffffffffffffffffffffffffffffffffffff166000809054906101000a900473ffffffffffffffffffffffffffffffffffffffff1673ffffffffffffffffffffffffffffffffffffffff1614620011e6576040517f08c379a00000000000000000000000000000000000000000000000000000000081526004018080602001828103825260208152602001807f4f776e61626c653a2063616c6c6572206973206e6f7420746865206f776e657281525060200191505060405180910390fd5b600454620011f48862000d39565b1015620012f5577fe76c822f6fbd9c15397238632a6cd69cd897fb6f8bb595172564a8efc187261d6001808111156200122957fe5b60085460006040518080602001858152602001848152602001806020018473ffffffffffffffffffffffffffffffffffffffff1673ffffffffffffffffffffffffffffffffffffffff1681526020018381038352600d8152602001807f416c7265616479206578697374000000000000000000000000000000000000008152506020018381038252600d8152602001807f5f626f72726f7765724e616d65000000000000000000000000000000000000008152506020019550505050505060405180910390a16200169d565b6000306008548a8c620013088c62000d39565b620013138c62000807565b8b8b8b8b8b604051620013269062001ce5565b808c73ffffffffffffffffffffffffffffffffffffffff1673ffffffffffffffffffffffffffffffffffffffff1681526020018b815260200180602001806020018a81526020018981526020018060200188815260200187815260200186815260200185815260200184810384528d818151815260200191508051906020019080838360005b83811015620013c9578082015181840152602081019050620013ac565b50505050905090810190601f168015620013f75780820380516001836020036101000a031916815260200191505b5084810383528c818151815260200191508051906020019080838360005b838110156200143257808201518184015260208101905062001415565b50505050905090810190601f168015620014605780820380516001836020036101000a031916815260200191505b50848103825289818151815260200191508051906020019080838360005b838110156200149b5780820151818401526020810190506200147e565b50505050905090810190601f168015620014c95780820380516001836020036101000a031916815260200191505b509e505050505050505050505050505050604051809103906000f080158015620014f7573d6000803e3d6000fd5b5090508060076000600854815260200190815260200160002060010160006101000a81548173ffffffffffffffffffffffffffffffffffffffff021916908373ffffffffffffffffffffffffffffffffffffffff1602179055508060076000600854815260200190815260200160002060000160006101000a81548173ffffffffffffffffffffffffffffffffffffffff021916908373ffffffffffffffffffffffffffffffffffffffff1602179055507fe76c822f6fbd9c15397238632a6cd69cd897fb6f8bb595172564a8efc187261d600180811115620015d657fe5b600854836040518080602001858152602001848152602001806020018473ffffffffffffffffffffffffffffffffffffffff1673ffffffffffffffffffffffffffffffffffffffff1681526020018381038352600b8152602001807f4e504120437265617465640000000000000000000000000000000000000000008152506020018381038252600d8152602001807f5f626f72726f7765724e616d65000000000000000000000000000000000000008152506020019550505050505060405180910390a1505b600860008154809291906001019190505550505050505050505050565b620016c462001b10565b73ffffffffffffffffffffffffffffffffffffffff166000809054906101000a900473ffffffffffffffffffffffffffffffffffffffff1673ffffffffffffffffffffffffffffffffffffffff161462001786576040517f08c379a00000000000000000000000000000000000000000000000000000000081526004018080602001828103825260208152602001807f4f776e61626c653a2063616c6c6572206973206e6f7420746865206f776e657281525060200191505060405180910390fd5b60008090506000606490505b600254811015620018c057600160008281526020019081526020016000206040516020018082805460018160011615610100020316600290048015620018125780601f10620017ef57610100808354040283529182019162001812565b820191906000526020600020905b815481529060010190602001808311620017fd575b505091505060405160208183030381529060405280519060200120836040516020018082805190602001908083835b6020831062001866578051825260208201915060208101905060208303925062001841565b6001836020036101000a038019825116818451168082178552505050505050905001915050604051602081830303815290604052805190602001201415620018b25760019150620018c0565b808060010191505062001792565b508062001a3257816001600060025481526020019081526020016000209080519060200190620018f292919062001c5e565b507fe76c822f6fbd9c15397238632a6cd69cd897fb6f8bb595172564a8efc187261d600060018111156200192257fe5b6002548460006040518080602001868152602001858152602001806020018473ffffffffffffffffffffffffffffffffffffffff1673ffffffffffffffffffffffffffffffffffffffff1681526020018381038352600c8152602001807f456e746974792041646465640000000000000000000000000000000000000000815250602001838103825285818151815260200191508051906020019080838360005b83811015620019e0578082015181840152602081019050620019c3565b50505050905090810190601f16801562001a0e5780820380516001836020036101000a031916815260200191505b50965050505050505060405180910390a16002600081548092919060010191905055505b5050565b62001a4062001b10565b73ffffffffffffffffffffffffffffffffffffffff166000809054906101000a900473ffffffffffffffffffffffffffffffffffffffff1673ffffffffffffffffffffffffffffffffffffffff161462001b02576040517f08c379a00000000000000000000000000000000000000000000000000000000081526004018080602001828103825260208152602001807f4f776e61626c653a2063616c6c6572206973206e6f7420746865206f776e657281525060200191505060405180910390fd5b62001b0d8162001b18565b50565b600033905090565b600073ffffffffffffffffffffffffffffffffffffffff168173ffffffffffffffffffffffffffffffffffffffff16141562001ba0576040517f08c379a00000000000000000000000000000000000000000000000000000000081526004018080602001828103825260268152602001806200257b6026913960400191505060405180910390fd5b8073ffffffffffffffffffffffffffffffffffffffff166000809054906101000a900473ffffffffffffffffffffffffffffffffffffffff1673ffffffffffffffffffffffffffffffffffffffff167f8be0079c531659141344cd1fd0a4f28419497f9722a3daafe3b4186f6b6457e060405160405180910390a3806000806101000a81548173ffffffffffffffffffffffffffffffffffffffff021916908373ffffffffffffffffffffffffffffffffffffffff16021790555050565b828054600181600116156101000203166002900490600052602060002090601f016020900481019282601f1062001ca157805160ff191683800117855562001cd2565b8280016001018555821562001cd2579182015b8281111562001cd157825182559160200191906001019062001cb4565b5b50905062001ce1919062001cf3565b5090565b61085f8062001d1c83390190565b62001d1891905b8082111562001d1457600081600090555060010162001cfa565b5090565b9056fe608060405234801561001057600080fd5b5060405161085f38038061085f833981810160405261016081101561003457600080fd5b8101908080519060200190929190805190602001909291908051604051939291908464010000000082111561006857600080fd5b8382019150602082018581111561007e57600080fd5b825186600182028301116401000000008211171561009b57600080fd5b8083526020830192505050908051906020019080838360005b838110156100cf5780820151818401526020810190506100b4565b50505050905090810190601f1680156100fc5780820380516001836020036101000a031916815260200191505b506040526020018051604051939291908464010000000082111561011f57600080fd5b8382019150602082018581111561013557600080fd5b825186600182028301116401000000008211171561015257600080fd5b8083526020830192505050908051906020019080838360005b8381101561018657808201518184015260208101905061016b565b50505050905090810190601f1680156101b35780820380516001836020036101000a031916815260200191505b506040526020018051906020019092919080519060200190929190805160405193929190846401000000008211156101ea57600080fd5b8382019150602082018581111561020057600080fd5b825186600182028301116401000000008211171561021d57600080fd5b8083526020830192505050908051906020019080838360005b83811015610251578082015181840152602081019050610236565b50505050905090810190601f16801561027e5780820380516001836020036101000a031916815260200191505b50604052602001805190602001909291908051906020019092919080519060200190929190805190602001909291905050508a600b60006101000a81548173ffffffffffffffffffffffffffffffffffffffff021916908373ffffffffffffffffffffffffffffffffffffffff16021790555089600181905550886002908051906020019061030e92919061039a565b50876003908051906020019061032592919061039a565b508660048190555085600581905550846006908051906020019061034a92919061039a565b5083600781905550826008819055508160098190555080600a8190555060008060006101000a81548160ff0219169083600281111561038557fe5b0217905550505050505050505050505061043f565b828054600181600116156101000203166002900490600052602060002090601f016020900481019282601f106103db57805160ff1916838001178555610409565b82800160010185558215610409579182015b828111156104085782518255916020019190600101906103ed565b5b509050610416919061041a565b5090565b61043c91905b80821115610438576000816000905550600101610420565b5090565b90565b6104118061044e6000396000f3fe608060405234801561001057600080fd5b506004361061002b5760003560e01c8063c899c9a414610030575b600080fd5b6100386101bc565b604051808b815260200180602001806020018a81526020018981526020018060200188815260200187815260200186815260200185815260200184810384528d818151815260200191508051906020019080838360005b838110156100aa57808201518184015260208101905061008f565b50505050905090810190601f1680156100d75780820380516001836020036101000a031916815260200191505b5084810383528c818151815260200191508051906020019080838360005b838110156101105780820151818401526020810190506100f5565b50505050905090810190601f16801561013d5780820380516001836020036101000a031916815260200191505b50848103825289818151815260200191508051906020019080838360005b8381101561017657808201518184015260208101905061015b565b50505050905090810190601f1680156101a35780820380516001836020036101000a031916815260200191505b509d505050505050505050505050505060405180910390f35b60006060806000806060600080600080600154600260036004546005546006600754600854600954600a54888054600181600116156101000203166002900480601f01602080910402602001604051908101604052809291908181526020018280546001816001161561010002031660029004801561027c5780601f106102515761010080835404028352916020019161027c565b820191906000526020600020905b81548152906001019060200180831161025f57829003601f168201915b50505050509850878054600181600116156101000203166002900480601f0160208091040260200160405190810160405280929190818152602001828054600181600116156101000203166002900480156103185780601f106102ed57610100808354040283529160200191610318565b820191906000526020600020905b8154815290600101906020018083116102fb57829003601f168201915b50505050509750848054600181600116156101000203166002900480601f0160208091040260200160405190810160405280929190818152602001828054600181600116156101000203166002900480156103b45780601f10610389576101008083540402835291602001916103b4565b820191906000526020600020905b81548152906001019060200180831161039757829003601f168201915b5050505050945099509950995099509950995099509950995099509091929394959697989956fea2646970667358221220f7bac115f094331ae726ea40872b623fa17bae4dc64d83c16e198e5b1ab58fb564736f6c634300060000334f776e61626c653a206e6577206f776e657220697320746865207a65726f2061646472657373a26469706673582212201c4fdf31e8c4ebd7684d0d28331602e9b54e240d2c3ff22f728f219ad65b06e664736f6c63430006000033",
  "source": "pragma solidity ^0.6.0;\r\n\r\n// Import AssetInterface contract to create instance of a NPA\r\nimport \"./AssetInterface.sol\";\r\n\r\n// Import Ownable contract by OpenZeppelin to make only Owner access for various functions\r\nimport \"./Ownable.sol\";\r\n\r\ncontract AssetManager is Ownable{\r\n\r\n    //****-----Start of variable declaration-----****//\r\n\r\n    enum EventType{EntityAdded,NPA_Created}\r\n\r\n    //Mapping of different banks with index starting from 100\r\n    mapping(uint=>string) public bankList;\r\n    uint bankListIndex = 100;\r\n\r\n    //Mapping of different sectors with index starting from 200\r\n    mapping(uint=>uint) public auctionList;\r\n    uint auctionIndex = 200;\r\n\r\n    //    Mapping of different eventType with index starting from 300\r\n    mapping(uint=>string) eventTypes;\r\n    uint eventIndex=300;\r\n\r\n    //Structure to store the NPA contract instance and address of that instance for further interaction\r\n    struct S_NPA\r\n    {\r\n        AssetInterface npa;\r\n        address npaContract;\r\n\r\n    }\r\n    //Mapping of different NPA structures with index starting from 400\r\n    mapping(uint=>S_NPA) public NPA_List;\r\n    uint NPA_ListIndex=400;\r\n\r\n    //Event to generate LOG of the NPA instance and it's address\r\n    event eventState(string state,uint stateCode,uint id,string name,address npaAddress);\r\n\r\n    event npaAddress(uint id, address npa);\r\n\r\n    //****-----End of variable declaration-----****//\r\n\r\n    // Add Bank function which first checks if the bank is already initialized or not, if initialized returns ID of that bank else emit event added\r\n//    function addBankIfNotExist(string memory _bankName) public onlyOwner returns(uint id){\r\n//        uint bankID = 0;\r\n//        bool bankExist = false;\r\n//        for(uint i = 100; i<bankListIndex; i++){\r\n//            if(keccak256(abi.encodePacked((_bankName))) == keccak256(abi.encodePacked(bankList[i]))){\r\n//                bankID=i;\r\n//                bankExist=true;\r\n//                break;\r\n//            }\r\n//        }\r\n//        if(!bankExist){\r\n//            bankID=bankListIndex;\r\n//            bankList[bankListIndex]=_bankName;\r\n//            emit eventState(\"Entity Added\",uint(EventType.EntityAdded),bankListIndex,_bankName, address(0));\r\n//            bankListIndex++;\r\n//        }\r\n//        return bankID;\r\n//    }\r\n\r\n    function addBankIfNotExist(string memory _bankName) public onlyOwner {\r\n        bool bankExist = false;\r\n        for(uint i = 100; i<bankListIndex; i++){\r\n            if(keccak256(abi.encodePacked((_bankName))) == keccak256(abi.encodePacked(bankList[i]))){\r\n                bankExist=true;\r\n                break;\r\n            }\r\n        }\r\n        if(!bankExist){\r\n            bankList[bankListIndex]=_bankName;\r\n            emit eventState(\"Entity Added\",uint(EventType.EntityAdded),bankListIndex,_bankName, address(0));\r\n            bankListIndex++;\r\n        }\r\n    }\r\n\r\n\r\n    function getNPA(uint _id) view public returns(uint id, address add){\r\n        address npa =  NPA_List[_id].npaContract;\r\n        return (_id,npa);\r\n    }\r\n\r\n    // Add Sector function which first checks if the bank is already initialized or not, if initialized returns ID of that bank else emit event added\r\n    function addAuctionIdIfNotExist(uint _auctionID) public onlyOwner returns(uint){\r\n        uint auctionId;\r\n        bool auctionExist=false;\r\n        for(uint j = 200; j<auctionIndex; j++){\r\n            if(auctionList[j]==_auctionID){\r\n                auctionId=j;\r\n                auctionExist=true;\r\n                break;\r\n            }\r\n        }\r\n        if(!auctionExist){\r\n            auctionId=auctionIndex;\r\n            auctionList[auctionIndex]=_auctionID;\r\n            emit eventState(\"Entity Added\",uint(EventType.EntityAdded),auctionIndex,\"Success\", address(0));\r\n            auctionIndex++;\r\n        }\r\n        return auctionId;\r\n    }\r\n    //\r\n    //      Add Borrower function which first checks if the bank is already initialized or not, if initialized returns ID of that bank else emit event added\r\n    function addEventTypeIfNotExist(string memory _eventName) public onlyOwner returns(uint){\r\n        uint eventId;\r\n        bool eventExist=false;\r\n        for(uint k = 300; k<eventIndex; k++){\r\n            if(keccak256(abi.encodePacked((_eventName))) == keccak256(abi.encodePacked(eventTypes[k]))){\r\n                eventId=k;\r\n                eventExist=true;\r\n                break;\r\n            }\r\n        }\r\n        if(!eventExist){\r\n            eventTypes[eventIndex]=_eventName;\r\n            eventId=eventIndex;\r\n            emit eventState(\"Entity Added\",uint(EventType.EntityAdded),eventIndex,_eventName,address(0));\r\n            eventIndex++;\r\n        }\r\n        return eventId;\r\n    }\r\n\r\n    function addNPA(string memory _bankName,string memory _assetOnAuction,uint _auctionID, string memory _eventType, string memory _city,\r\n        uint _reservePrice,uint _EMD,uint _bidMultiplier, uint _timestamp) public onlyOwner{\r\n\r\n        if(addAuctionIdIfNotExist(_auctionID)<auctionIndex){\r\n            emit eventState(\"Already exist\",uint(EventType.NPA_Created),NPA_ListIndex,\"_borrowerName\", address(0));\r\n        }else{\r\n\r\n            //  Creating AssetInterface contract of a NPA\r\n            AssetInterface item = new AssetInterface(this, NPA_ListIndex, _assetOnAuction,\r\n                _bankName, addAuctionIdIfNotExist(_auctionID), addEventTypeIfNotExist(_eventType),\r\n                _city, _reservePrice, _EMD, _bidMultiplier, _timestamp);\r\n            // Adding the NPA and address of that NPA to Structure\r\n            NPA_List[NPA_ListIndex].npaContract = address(item);\r\n            NPA_List[NPA_ListIndex].npa = item;\r\n            emit eventState(\"NPA Created\",uint(EventType.NPA_Created),NPA_ListIndex,\"_borrowerName\", address(item));\r\n        }\r\n        NPA_ListIndex++;\r\n\r\n    }\r\n}",
  "sourcePath": "/home/mihirsinh/Desktop/CollegeProjects/Prototype/contracts/AssetManager.sol",
  "compiler": {
    "name": "solc",
    "version": "0.6.0+commit.26b70077.Emscripten.clang"
  },
  "schemaVersion": "3.0.23",
  "updatedAt": "2020-04-27T11:30:09.432Z",
  "networkType": "ethereum",
  "devdoc": {
    "methods": {
      "owner()": {
        "details": "Returns the address of the current owner."
      },
      "renounceOwnership()": {
        "details": "Leaves the contract without owner. It will not be possible to call `onlyOwner` functions anymore. Can only be called by the current owner.     * NOTE: Renouncing ownership will leave the contract without an owner, thereby removing any functionality that is only available to the owner."
      },
      "transferOwnership(address)": {
        "details": "Transfers ownership of the contract to a new account (`newOwner`). Can only be called by the current owner."
      }
    }
  },
  "userdoc": {
    "methods": {}
  }
}