{
  "contractName": "AssetInterface",
  "abi": [
    {
      "inputs": [
        {
          "internalType": "contract AssetManager",
          "name": "_parent",
          "type": "address"
        },
        {
          "internalType": "uint256",
          "name": "_NPA_ID",
          "type": "uint256"
        },
        {
          "internalType": "string",
          "name": "_assetOnAuction",
          "type": "string"
        },
        {
          "internalType": "string",
          "name": "_bankName",
          "type": "string"
        },
        {
          "internalType": "uint256",
          "name": "_auctionID",
          "type": "uint256"
        },
        {
          "internalType": "uint256",
          "name": "_eventType",
          "type": "uint256"
        },
        {
          "internalType": "string",
          "name": "_city",
          "type": "string"
        },
        {
          "internalType": "uint256",
          "name": "_reservePrice",
          "type": "uint256"
        },
        {
          "internalType": "uint256",
          "name": "_EMD",
          "type": "uint256"
        },
        {
          "internalType": "uint256",
          "name": "_bidMultipliers",
          "type": "uint256"
        },
        {
          "internalType": "uint256",
          "name": "_timeStamp",
          "type": "uint256"
        }
      ],
      "stateMutability": "nonpayable",
      "type": "constructor"
    },
    {
      "inputs": [],
      "name": "getNPADetails",
      "outputs": [
        {
          "internalType": "uint256",
          "name": "_NPA_ID",
          "type": "uint256"
        },
        {
          "internalType": "string",
          "name": "_assetOnAuction",
          "type": "string"
        },
        {
          "internalType": "string",
          "name": "_bankName",
          "type": "string"
        },
        {
          "internalType": "uint256",
          "name": "_auctionID",
          "type": "uint256"
        },
        {
          "internalType": "uint256",
          "name": "_eventType",
          "type": "uint256"
        },
        {
          "internalType": "string",
          "name": "_city",
          "type": "string"
        },
        {
          "internalType": "uint256",
          "name": "_reservePrice",
          "type": "uint256"
        },
        {
          "internalType": "uint256",
          "name": "_EMD",
          "type": "uint256"
        },
        {
          "internalType": "uint256",
          "name": "_bidMultipliers",
          "type": "uint256"
        },
        {
          "internalType": "uint256",
          "name": "_timeStamp",
          "type": "uint256"
        }
      ],
      "stateMutability": "view",
      "type": "function"
    }
  ],
  "bytecode": "0x608060405234801561001057600080fd5b5060405161085f38038061085f833981810160405261016081101561003457600080fd5b8101908080519060200190929190805190602001909291908051604051939291908464010000000082111561006857600080fd5b8382019150602082018581111561007e57600080fd5b825186600182028301116401000000008211171561009b57600080fd5b8083526020830192505050908051906020019080838360005b838110156100cf5780820151818401526020810190506100b4565b50505050905090810190601f1680156100fc5780820380516001836020036101000a031916815260200191505b506040526020018051604051939291908464010000000082111561011f57600080fd5b8382019150602082018581111561013557600080fd5b825186600182028301116401000000008211171561015257600080fd5b8083526020830192505050908051906020019080838360005b8381101561018657808201518184015260208101905061016b565b50505050905090810190601f1680156101b35780820380516001836020036101000a031916815260200191505b506040526020018051906020019092919080519060200190929190805160405193929190846401000000008211156101ea57600080fd5b8382019150602082018581111561020057600080fd5b825186600182028301116401000000008211171561021d57600080fd5b8083526020830192505050908051906020019080838360005b83811015610251578082015181840152602081019050610236565b50505050905090810190601f16801561027e5780820380516001836020036101000a031916815260200191505b50604052602001805190602001909291908051906020019092919080519060200190929190805190602001909291905050508a600b60006101000a81548173ffffffffffffffffffffffffffffffffffffffff021916908373ffffffffffffffffffffffffffffffffffffffff16021790555089600181905550886002908051906020019061030e92919061039a565b50876003908051906020019061032592919061039a565b508660048190555085600581905550846006908051906020019061034a92919061039a565b5083600781905550826008819055508160098190555080600a8190555060008060006101000a81548160ff0219169083600281111561038557fe5b0217905550505050505050505050505061043f565b828054600181600116156101000203166002900490600052602060002090601f016020900481019282601f106103db57805160ff1916838001178555610409565b82800160010185558215610409579182015b828111156104085782518255916020019190600101906103ed565b5b509050610416919061041a565b5090565b61043c91905b80821115610438576000816000905550600101610420565b5090565b90565b6104118061044e6000396000f3fe608060405234801561001057600080fd5b506004361061002b5760003560e01c8063c899c9a414610030575b600080fd5b6100386101bc565b604051808b815260200180602001806020018a81526020018981526020018060200188815260200187815260200186815260200185815260200184810384528d818151815260200191508051906020019080838360005b838110156100aa57808201518184015260208101905061008f565b50505050905090810190601f1680156100d75780820380516001836020036101000a031916815260200191505b5084810383528c818151815260200191508051906020019080838360005b838110156101105780820151818401526020810190506100f5565b50505050905090810190601f16801561013d5780820380516001836020036101000a031916815260200191505b50848103825289818151815260200191508051906020019080838360005b8381101561017657808201518184015260208101905061015b565b50505050905090810190601f1680156101a35780820380516001836020036101000a031916815260200191505b509d505050505050505050505050505060405180910390f35b60006060806000806060600080600080600154600260036004546005546006600754600854600954600a54888054600181600116156101000203166002900480601f01602080910402602001604051908101604052809291908181526020018280546001816001161561010002031660029004801561027c5780601f106102515761010080835404028352916020019161027c565b820191906000526020600020905b81548152906001019060200180831161025f57829003601f168201915b50505050509850878054600181600116156101000203166002900480601f0160208091040260200160405190810160405280929190818152602001828054600181600116156101000203166002900480156103185780601f106102ed57610100808354040283529160200191610318565b820191906000526020600020905b8154815290600101906020018083116102fb57829003601f168201915b50505050509750848054600181600116156101000203166002900480601f0160208091040260200160405190810160405280929190818152602001828054600181600116156101000203166002900480156103b45780601f10610389576101008083540402835291602001916103b4565b820191906000526020600020905b81548152906001019060200180831161039757829003601f168201915b5050505050945099509950995099509950995099509950995099509091929394959697989956fea2646970667358221220f7bac115f094331ae726ea40872b623fa17bae4dc64d83c16e198e5b1ab58fb564736f6c63430006000033",
  "source": "pragma solidity ^0.6.0;\n\nimport \"./AssetManager.sol\";\n\ncontract AssetInterface{\n\n    enum assetState{Created, onAuction, Auctioned}\n\n    assetState state;\n    uint NPA_ID;\n    string assetOnAuction;\n    string bankName;\n    uint auctionID;\n    uint eventType;\n    string city;\n    uint reservePrice;\n    uint EMD;\n    uint bidMultipliers;\n    uint timeStamp;\n\n    AssetManager assetManager;\n\n    constructor(\n        AssetManager _parent,\n        uint _NPA_ID,\n        string memory _assetOnAuction,\n        string memory _bankName, uint _auctionID, uint _eventType,\n        string memory _city,\n        uint _reservePrice, uint _EMD, uint _bidMultipliers,uint _timeStamp) public{\n        assetManager = _parent;\n        NPA_ID = _NPA_ID;\n        assetOnAuction = _assetOnAuction;\n        bankName=_bankName;\n        auctionID=_auctionID;\n        eventType = _eventType;\n        city=_city;\n        reservePrice=_reservePrice;\n        EMD=_EMD;\n        bidMultipliers=_bidMultipliers;\n        timeStamp=_timeStamp;\n        state = assetState.Created;\n    }\n\n    function getNPADetails() public view returns(uint _NPA_ID, string memory _assetOnAuction, string memory _bankName, uint _auctionID, uint _eventType, string memory _city, uint _reservePrice, uint _EMD, uint _bidMultipliers, uint _timeStamp){\n        return (NPA_ID, assetOnAuction, bankName, auctionID, eventType, city, reservePrice, EMD, bidMultipliers, timeStamp);\n    }\n}",
  "sourcePath": "/home/mihirsinh/Desktop/CollegeProjects/Prototype/contracts/AssetInterface.sol",
  "compiler": {
    "name": "solc",
    "version": "0.6.0+commit.26b70077.Emscripten.clang"
  },
  "schemaVersion": "3.0.23",
  "updatedAt": "2020-04-24T08:24:50.582Z",
  "devdoc": {
    "methods": {}
  },
  "userdoc": {
    "methods": {}
  }
}